{
  "contractName": "Election",
  "abi": [
    {
      "inputs": [],
      "payable": false,
      "stateMutability": "nonpayable",
      "type": "constructor"
    },
    {
      "constant": true,
      "inputs": [
        {
          "internalType": "uint256",
          "name": "",
          "type": "uint256"
        }
      ],
      "name": "candidates",
      "outputs": [
        {
          "internalType": "uint256",
          "name": "id",
          "type": "uint256"
        },
        {
          "internalType": "string",
          "name": "name",
          "type": "string"
        },
        {
          "internalType": "uint256",
          "name": "voteCount",
          "type": "uint256"
        }
      ],
      "payable": false,
      "stateMutability": "view",
      "type": "function"
    },
    {
      "constant": true,
      "inputs": [],
      "name": "candidatesCount",
      "outputs": [
        {
          "internalType": "uint256",
          "name": "",
          "type": "uint256"
        }
      ],
      "payable": false,
      "stateMutability": "view",
      "type": "function"
    }
  ],
  "bytecode": "0x6080604052600060015534801561001557600080fd5b5061005a6040518060400160405280600c81526020017f4d61756c696b204775707461000000000000000000000000000000000000000081525061015260201b60201c565b6100816040518060600160405280602b815260200161048c602b913961015260201b60201c565b6100c56040518060400160405280600a81526020017f4164697479612052616a0000000000000000000000000000000000000000000081525061015260201b60201c565b6101096040518060400160405280600f81526020017f416468696e6179616b20416e616e64000000000000000000000000000000000081525061015260201b60201c565b61014d6040518060400160405280601381526020017f4469766a6f742053696e6768204f6265726f690000000000000000000000000081525061015260201b60201c565b610272565b60016000815480929190600101919050555060405180606001604052806001548152602001828152602001600081525060008060015481526020019081526020016000206000820151816000015560208201518160010190805190602001906101bc9291906101cd565b506040820151816002015590505050565b828054600181600116156101000203166002900490600052602060002090601f016020900481019282601f1061020e57805160ff191683800117855561023c565b8280016001018555821561023c579182015b8281111561023b578251825591602001919060010190610220565b5b509050610249919061024d565b5090565b61026f91905b8082111561026b576000816000905550600101610253565b5090565b90565b61020b806102816000396000f3fe608060405234801561001057600080fd5b50600436106100365760003560e01c80632d35a8a21461003b5780633477ee2e14610059575b600080fd5b61004361010e565b6040518082815260200191505060405180910390f35b6100856004803603602081101561006f57600080fd5b8101908080359060200190929190505050610114565b6040518084815260200180602001838152602001828103825284818151815260200191508051906020019080838360005b838110156100d15780820151818401526020810190506100b6565b50505050905090810190601f1680156100fe5780820380516001836020036101000a031916815260200191505b5094505050505060405180910390f35b60015481565b6000602052806000526040600020600091509050806000015490806001018054600181600116156101000203166002900480601f0160208091040260200160405190810160405280929190818152602001828054600181600116156101000203166002900480156101c65780601f1061019b576101008083540402835291602001916101c6565b820191906000526020600020905b8154815290600101906020018083116101a957829003601f168201915b505050505090806002015490508356fea265627a7a723158200bbcad661ba2e7f2cdcee4da5779a8488329e1c6f8d290ac829b6e291e9ce74d64736f6c6343000510003253686976616e736820536861726d612c20416c6c20496e646961204d696e6f7269746965732046726f6e74",
  "source": "pragma solidity ^0.5.16;\n\ncontract Election {\n  \n  struct Candidate{\n    uint id;\n    string name;\n    uint voteCount;\n  }\n\n  mapping(uint => Candidate) public candidates;\n\n  uint public candidatesCount = 0; //no way to iterate in map\n  constructor() public{\n    addCandidate(\"Maulik Gupta\");\n    addCandidate(\"Shivansh Sharma, All India Minorities Front\");\n    addCandidate(\"Aditya Raj\");\n    addCandidate(\"Adhinayak Anand\");\n    addCandidate(\"Divjot Singh Oberoi\");\n  }\n\n  function addCandidate(string memory _name) private{\n    candidatesCount++;\n    candidates[candidatesCount] = Candidate(candidatesCount, _name, 0);\n  }\n}",
  "sourcePath": "/home/maulik/Desktop/Maulik_Gupta/Documents/election/contracts/Election.sol",
  "compiler": {
    "name": "solc",
    "version": "0.5.16+commit.9c3226ce.Emscripten.clang"
  },
  "schemaVersion": "3.3.4",
  "updatedAt": "2021-04-15T08:28:07.327Z",
  "networkType": "ethereum",
  "devdoc": {
    "methods": {}
  },
  "userdoc": {
    "methods": {}
  }
}