{
  "contractName": "Election",
  "abi": [
    {
      "inputs": [],
      "payable": false,
      "stateMutability": "nonpayable",
      "type": "constructor"
    },
    {
      "constant": true,
      "inputs": [
        {
          "internalType": "uint256",
          "name": "",
          "type": "uint256"
        }
      ],
      "name": "candidates",
      "outputs": [
        {
          "internalType": "uint256",
          "name": "id",
          "type": "uint256"
        },
        {
          "internalType": "string",
          "name": "name",
          "type": "string"
        },
        {
          "internalType": "uint256",
          "name": "voteCount",
          "type": "uint256"
        }
      ],
      "payable": false,
      "stateMutability": "view",
      "type": "function"
    },
    {
      "constant": true,
      "inputs": [],
      "name": "candidatesCount",
      "outputs": [
        {
          "internalType": "uint256",
          "name": "",
          "type": "uint256"
        }
      ],
      "payable": false,
      "stateMutability": "view",
      "type": "function"
    },
    {
      "constant": false,
      "inputs": [
        {
          "internalType": "uint256",
          "name": "_candidateId",
          "type": "uint256"
        }
      ],
      "name": "vote",
      "outputs": [],
      "payable": false,
      "stateMutability": "nonpayable",
      "type": "function"
    }
  ],
  "bytecode": "0x6080604052600060015534801561001557600080fd5b5061005a6040518060400160405280600c81526020017f4d61756c696b204775707461000000000000000000000000000000000000000081525061016f60201b60201c565b61009e6040518060400160405280600f81526020017f53686976616e736820536861726d61000000000000000000000000000000000081525061016f60201b60201c565b6100e26040518060400160405280600a81526020017f4164697479612052616a0000000000000000000000000000000000000000000081525061016f60201b60201c565b6101266040518060400160405280600f81526020017f416468696e6179616b20416e616e64000000000000000000000000000000000081525061016f60201b60201c565b61016a6040518060400160405280601381526020017f4469766a6f742053696e6768204f6265726f690000000000000000000000000081525061016f60201b60201c565b61028f565b60016000815480929190600101919050555060405180606001604052806001548152602001828152602001600081525060008060015481526020019081526020016000206000820151816000015560208201518160010190805190602001906101d99291906101ea565b506040820151816002015590505050565b828054600181600116156101000203166002900490600052602060002090601f016020900481019282601f1061022b57805160ff1916838001178555610259565b82800160010185558215610259579182015b8281111561025857825182559160200191906001019061023d565b5b509050610266919061026a565b5090565b61028c91905b80821115610288576000816000905550600101610270565b5090565b90565b61026c8061029e6000396000f3fe608060405234801561001057600080fd5b50600436106100415760003560e01c80630121b93f146100465780632d35a8a2146100745780633477ee2e14610092575b600080fd5b6100726004803603602081101561005c57600080fd5b8101908080359060200190929190505050610147565b005b61007c61016f565b6040518082815260200191505060405180910390f35b6100be600480360360208110156100a857600080fd5b8101908080359060200190929190505050610175565b6040518084815260200180602001838152602001828103825284818151815260200191508051906020019080838360005b8381101561010a5780820151818401526020810190506100ef565b50505050905090810190601f1680156101375780820380516001836020036101000a031916815260200191505b5094505050505060405180910390f35b6000808281526020019081526020016000206002016000815480929190600101919050555050565b60015481565b6000602052806000526040600020600091509050806000015490806001018054600181600116156101000203166002900480601f0160208091040260200160405190810160405280929190818152602001828054600181600116156101000203166002900480156102275780601f106101fc57610100808354040283529160200191610227565b820191906000526020600020905b81548152906001019060200180831161020a57829003601f168201915b505050505090806002015490508356fea265627a7a72315820d890cc09055bf3e21276563f1a0a7e0737d9579fdd480d9f690e1ec342dbe61f64736f6c63430005100032",
  "source": "pragma solidity ^0.5.16;\n\ncontract Election {\n  \n  struct Candidate{\n    uint id;\n    string name;\n    uint voteCount;\n  }\n\n  mapping(uint => Candidate) public candidates;\n\n  uint public candidatesCount = 0; //no way to iterate in map\n  constructor() public{\n    addCandidate(\"Maulik Gupta\");\n    addCandidate(\"Shivansh Sharma\");\n    addCandidate(\"Aditya Raj\");\n    addCandidate(\"Adhinayak Anand\");\n    addCandidate(\"Divjot Singh Oberoi\");\n  }\n\n  function addCandidate(string memory _name) private{\n    candidatesCount++;\n    candidates[candidatesCount] = Candidate(candidatesCount, _name, 0);\n  }\n\n  function vote(uint _candidateId) public{\n    // record that voter has voted\n    \n\n    // update candidate vote count\n    candidates[_candidateId].voteCount ++;\n  }\n}",
  "sourcePath": "/home/maulik/Desktop/Maulik_Gupta/Documents/election/contracts/Election.sol",
  "compiler": {
    "name": "solc",
    "version": "0.5.16+commit.9c3226ce.Emscripten.clang"
  },
  "schemaVersion": "3.3.4",
  "updatedAt": "2021-05-23T03:59:21.307Z",
  "networkType": "ethereum",
  "devdoc": {
    "methods": {}
  },
  "userdoc": {
    "methods": {}
  }
}